:400000000080002011000000A9020000A9020000044A08B51268044B1A6000F0ADF900F04BF900BFFA460040BC76004010B5054C237833B9044B13B10448AFF300800123AE
:40004000237010BD4881FF1F000000001C170000084B10B51BB108490848AFF300800848036803B910BD074B002BFBD0BDE81040184700BF000000004C81FF1F1C170000A2
:40008000C880FF1F0000000008B500F077FDFEE7F8B572B66D4E0024354604EB4403AA8856F813000134002101F02CFB0A2C05F10605F2D1664E674B96E803008022186073
:4000C0009980654806F1080101F0F6FA06F1840706F1E00E0025E43657F8043F13F0FF0C23F0FF0414D00CF1FF3C5FFA8CFC05EB0C0006EB400006EB45030330013313F828
:40010000012C13F8021B98421155F8D1013565447745E1D1514C41F251262278504F42F0020222703A784F4D42F002023A702A78A4F5863442F040022A70413C2278A7F5E8
:400140007E4742F01002484B2270513F04F66E5403CB3860796003CBC5F8720DC5F8761D93E8070003C4414922800B7805F58C6543F008030B703E4C3E4861232B70A7F604
:40018000C2673D4A332118250223218005704FF040243B7008210320384B217010701A783748384BD2B287F8A123A4F8221206801C784FF4F07004F001041E4600F0D0FF91
:4001C00001E0032C0DD033784FF4F07003F0010343EA440400F0C4FF013D04F00304F0D1FEE7294B294D2A4F2A484FF4807407221C8000211A704826274A022439702E70FE
:4002000019700470137800F5F820033043F00103812601242149137085F8F86704700B78A0F5F420DBB21E49A0F2967005F5C35503F007071B4C1B090770023A0B700E35EF
:4002400044260FCA2E7007C42380F8BD201700005C17000060520040001A01400350014013500140A04300407C1B0000224300408040004082400040004200400801004916
:40028000204200402542004004400040084000400640004001400040A2430040CF0100496F580040B043004008B501F0D9F903680C2B00D0FEE7FEE780B5134FF7B1134E0E
:4002C000002556F80C0C56F8084C56F8102C03463CB1043A52F8041F43F8041B191AA142F8D156F8040C1A4620B142F8045BD11A8842FAD1013F06F11006E2D101F0B6F9E5
:40030000FFF7C2FEFEE700BF01000000D81B00000E4B0F4A0F491A600B680F4A43F400730E480B600023032B94BF50F823100C490133302B42F8041FF5D10A4B0A49187856
:400340000A4A0B4B08701A60FFF7A2BE0CED00E00004FA0514ED00E0FC7FFF1F00000000A9020000BC760040C080FF1F0080FF1F08ED00E0004700BF134A137803F0C003A3
:40038000802B00D0704770B400231048104E114D1370017833782A780F4C120442EA032322780B4353EA026301D170BC7047017833782A782078120442EA03230B4343EA24
:4003C000006070BCFFF7D6BFFA460040C1FF0300C2FF0300C3FF0300C4FF0300F0B50002C0F57F3090F8C5E390F8C67390F8C92390F8CAC390F8CB1390F8CC3390F8D15336
:40040000C1B0012D69D0DBB21D06C9B290F8C53390F8C663FFB245EA01415FFA8EFED2B25FFA8CFC0A434EEA072E43EA062642EA0C220EF10107013602EB072736020022FC
:40044000B74200F2D13415460AD916F8013B591EC9B2FD29134498BF0125B742DAB2F4D190F8C53390F8C6131D4E43EA0121B7424FEA411101F1200114BFFF084FF4004738
:400480008F4209D901F1904107F1904711F8013B1344B942DAB2F9D1534290F8C023DBB2934202D0062041B0F0BD002DFAD068464FF4807224F0FF0101F009F99DF8D1309B
:4004C000012B0AD00123C4F307216A4603208DF8D13000F0E1FB00F005FD002041B0F0BDC0FF0300013810B40B2863D8DFE800F017202632383E444A50565C060902C1F5DE
:400500007F3101F578710A784C788B78C8781B0443EA0423134343EA006010BC70470902C1F57F3101F57071087810BCC0B270470902C1F57F3101F2C131E4E70902C1F52B
:400540007F3101F2C5314A1C0B78107810BC43EA002070470902C1F57F3101F2C931D2E70902C1F57F3101F57471DDE70902C1F57F3101F2D131D7E70902C1F57F3101F2F2
:40058000D231E0E70902C1F57F3101F2D631DAE70902C1F57F3101F57571D4E70902C1F57F3101F57671AEE70902C1F57F3101F57771B9E701220021C6E700BF2DE98048DD
:4005C000ADF5677D00F0DCFD62B600239B461E4601930DF23F1451AF0DF245190DF5A3780293FF2305AA4FF4967150A800F0E8FD0028F6D1BDF81420062A03D99DF8405145
:40060000012D2CD04FF0040A0025284604210123ADF816008DF841A18DF842518DF843618DF840310023625C0139134489B29BB20029F8D15B429BB25FFA83FE1A0AC11D5C
:40064000172507F800E089B209F80020962308F800500DF1160250A800F09EFDC1E7BDF84231D91D914200F2E680B1F5967F00F2E28050AA1A449279172AC3D1191D89B2B8
:40068000002900F04A82625C0139104489B280B20029F8D1404280B250AAD11891F805E00A7942EA0E22824202D04FF0080AABE79DF841119DF844A1A1F131020A2A00F201
:4006C000AD80DFE802F04788AB5A41AB311F5A1606000020FFF782FE10B9BD4A8023137000F058FD002500F0C9FB04218A4628468DE7BBF1000F40F0BB80042100258A46CD
:40070000284684E7002BF8D1B24A082592E8030008AA82E8030087E8030001939A4628460C214FF0010B72E7BBF1000FE5D0019A03EB020EBEF5967F40F3108100252846DA
:4007400004214FF0030A62E7BBF1000FD5D00023019346E7BBF1000FCFD0002BCDD118460393FFF73BFEB0FA80F0039B40098DF844019A460521584649E734295ED0BBF15F
:40078000000FBAD0022BB8D9AAF1400B019D5FFA8BFB033B9BAA50190DF247111A46039300F08AFF019BBBF13F0F1A46039B1A4495B240F207814FF480734FF49072954288
:4007C00000F0F38000250195284604214FF0010B4FF0030A1BE7BBF1000F8ED0012B8CD1BAF1030F89D87C4B1B681B68C3F30742924500F09E8194BF012200220023FF2162
:4008000004258DF846118DF844318DF845218DF84761284608214FF0000AF8E66F4A1568002D6CD0BBF1000F6ED10025284604214FF0050AEBE64FF0030AE5E6BBF1000FA1
:400840003FF45BAF032B7FF458AFAAF1400B5FFA8BFBBBF13F0F94BF10254FF490752A4600219BA80393019500F04CFF039B90E7032B7FF442AFAAF140033F2BBDF84511CF
:4008800040F2E780FF2979D84FEA0A2E0EEB0100000200F1FF020023013812F801C963448242DBB2F9D1BAF13F0F20D80EF110720A4452011046203210F801EB73448242AB
:4008C000DBB2F9D1BAF1030F11D1FF290FD1002105200393FFF706FE039B00211B1A06205FFA83FAFFF7FEFDC0EB0A00C3B25B428DF8443105214FF0000A012087E6042160
:4009000028464FF0050A82E68DF81810ADF81A3006A80797089609960A9708A9A847BDF824000A9BB0F5937F01D3BB422ED05BB39DF82030021D91B28DF841310122030AAD
:40094000ADF816008DF842018DF840218DF8433100297FF467AE0A468E4670E61A46019B9BA90B441846394600251FFA8EF30193AA4600F0A1FE2846042148E60025284658
:4009800004214FF00A0A42E60028D1D001220E23ADF816608DF842618DF843618DF840218DF84131042100203CE6BDF845219A42019215D30025284604214FF0010B4FF016
:4009C0000A0A24E600F030FA80231022F7E600BFFA460040981B0000CC80FF1F6481FF1FBAF13F0F20D8554B02EB0A221B6892B21968C1F30F2311F0FF0F1CBF01339BB26B
:400A00009A42C0F08C80029B73B919464FF4907208A800F077FE4FF4907308AAFF21032000F0A0F9012302932B46019950469BAA00F098F9002398420CBF9A464FF00A0ABD
:400A400001931D464FF0010B00F04CFA01980421DDE5039100F0E8F903997F294FEA01138CD837483749384A18441944DFF8DCC000781A440978DFF8D8E012789C449E4445
:400A800008449CF80010DFF8CCC010449EF80020DFF8C4E09C449E4408449CF80010DFF8BCC010449EF80020DFF8B4E09C449E4408449CF80010DFF8ACC010449EF80020E5
:400AC000DFF8A4E09C449E4408449CF80010DFF89CC010449EF80020DFF894E09C449E4408449CF80010DFF88CC010449EF80020DFF884E09C4408449E449CF8001003F1A1
:400B00008043104403F500439EF8002001441B780A44134403F0FF03E9E60846BCE5002301931D46184604214FF0010B4FF00A0A6DE5C3F30723002261E600BFCC80FF1F7E
:400B40000F8000400E8000400D8000400C8000400B8000400A80004009800040088000400780004006800040058000400480004003800040028000400180004038B500F0E0
:400B800039F870BB0020FFF729FC184C0028236818BF06251A6808BF00256AB1002312F8011D0B44DBB2002AF9D162681278D31A03F0FF039A4202D0002000F05DF90C4A41
:400BC000137803F0C003402B00D025B1084B00221A70FFF7F3FC80231370BDE8384000F04DB9002000F048F9CCE700BFCC80FF1FFA46004038B500F0AFF900F05FFA10B14A
:400C00000424204638BD00F095FA072804462BD000F076FA002CF4D100F09EF900F04EFA0028EDD1012000F02DFA072805D04FF0FF3400F065FA204638BD154C02E0237812
:400C40009B07F4D40221134800F09CF90228F6D10F4C2378990705D4012000F03BF923789A07F9D50024E4E7094D2B789B0705D4012000F02FF92B789807F9D5044B1A78CB
:400C80009507D6D51B789B08D3D100F039FAC3E7224700407C81FF1FF0B53F2883B00AD8441F3A2C8CBF00240124B1F5807F17D9012003B0F0BD412894BF0024012481293F
:400CC00028BF01241027002AF2D0002CF0D116460D46044600F0F2F928B1042003B0F0BD4FF48077EFE73B4632462946204600F069F9072804D0019000F002FA0198EDE78A
:400D0000164E33789B0705D4012000F0E3F833789807F9D5114E33789F071BD533789B0818D10F4A294653782046127800F086F90728E0D102E0012000F0CCF8337899077A
:400D4000F9D5064B1A78920704D51B789B0801D11846D0E74FF0FF30CDE700BF224700407C81FF1FF0B5412883B015D8441F3A2C8CBF002401243F280FD8B1F5807F11D827
:400D800082B17CB91E4617460D46044600F096F958B1042003B0F0BD0124812928BF0124102BEDD0012003B0F0BD33463A462946204600F007F9072804D0019000F0A0F932
:400DC0000198F0E7164E33789B0705D4012000F081F833789807F9D5114E33789F071BD533789B0818D10F4A294653782046127800F024F90728E0D102E0012000F06AF8BB
:400E000033789907F9D5064B1A78920704D51B789B0801D11846D0E74FF0FF30CDE700BF224700407C81FF1F38B500F0A1F90F4A0F4913780F4C43F0080313700B78C82543
:400E400043F008030B702570137B43F0100313730B7B02F5587243F010030B7313789B06FCD5BDE8384000F087B900BFA0430040B04300400147004001BE7047024A13788B
:400E800043F0010313707047F6460040B0F5004F70B506461AD904460D4DA4F50044686800F05EF9B4F5004FF7D8A6F50043013B23F4FF4323F07F03A6F50046F61AA86885
:400EC00000FB06F0BDE8704000F04AB9004DF6E7D480FF1F024B1B7800FB03F000F040B9D480FF1F08B500F043F900BF00BF00BF00BF00BF00BF00BF00BF00BF00BF00BFD6
:400F000000BF00BF00BF00BF00BF064A13889BB243F0040313801388BFF36F8FBDE8084000F02AB900480040054B00F01F001A6800F1100352F8230042F82310704700BF29
:400F400008ED00E000F01F0000F16040490100F56440C9B20170704708B500F009F90749074A0B7843F008030B70137843F008031370BDE8084000F0FFB800BFA043004028
:400F8000B04300402DE9F0410F4699B14E1EF6B20644451E094CDFF8288002E00120FFF799FF2378DB07F9D598F8003005F8013FB542F6D13846BDE8F08100BF22470040F0
:400FC00020470040F0B41B4C2578AD071DD51A4DB6262E70D52702262F702E702478A40710D428705BB15E1EB6B21644013A12F8014FB2422C70FAD1B3F5807F08D0F0BC92
:40100000072070470920F0BC70470420F0BC70473F28F4D800F5103001EB0021490106480A46203112F8013BDBB291420370F9D1E5E700BF2247004020470040F0B40F4D53
:401040002C78A60716D50E4CB6262670D8270526277026702D78AD0709D40D0AC9B2207025702170227023700720F0BC70470920F0BC70470420F0BC704700BF2247004069
:40108000204700400B4A1378990711D530B40A4BB625E1240E211D701C7019701278920703D4187030BC07207047092030BC704704207047224700402047004038B500F019
:4010C00057F80D4A137823B1042400F055F8204638BD0125094915700C682C40F5D00C6824F001040C6000BF00BF00BF1C46556000F042F8204638BD6881FF1F0400084064
:4011000010B500F035F8094B002259681A70012908D1074C216841F00101216000BF00BF00BF5A60BDE8104000F026B86881FF1F04000840074B1B789B0708D5064BB620E1
:40114000E0210D221870197007201A7070470420704700BF2247004020470040000000000230800803D000BF01380046FCD17047EFF3108072B6704780F31088704700BFBB
:4011800008B500F071F800F04BF9BDE8084000F0A7B900BF00F0C6B8F8B50E460446174600F03EF94EB1751EADB22544013C14F8010F00F057F9AC42F9D13E800020F8BD6E
:4011C0002DE9F84303EB83035D0006468846174618BF002407D117E001340120A4B2FFF755FEAC4210DA00F0F3F80028F4D000F0EFF804461920FFF749FE00F0E9F88442CA
:40120000F5D34FF0000901E04FF0050900243C8000F0DEF8F8B100F0DBF83A8880B283189BB243453B801BD2C0B1204485B200F0A1F8631C30559CB2AC42F8D1731913F81D
:40124000013C172B02D00520FFF720FE2C4600F0BFF80028DFD14846BDE8F8832546EDE73A804846BDE8F883F8B5224D2C780CBB21492046FFF758FE20460721FFF762FE17
:401280001E4B1F492022692008701A701D4901206C70FFF749FE07210120FFF753FE1A4E1A481B4A06274724022101233770047011702B70FFF75CFF0546164C1649237823
:4012C000164A43F0200323700B78012043F010030B701060A378124843F010030221A3700160116000F09CF92846BDE8F840FFF743BF00BF7081FF1F211500008964004014
:4013000089650040B915000028640040386400408B650040996500409964004000E100E080E200E038B5FFF723FF05460D4A0E4C137803F0DF03137000F082F923780B4A1C
:40134000012003F0EF030A49237010600B78022403F0EF030B7028461460BDE83840FFF70BBF00BF996500409964004080E100E09B65004010B4114B114A0121196091786F
:40138000D3781079C9B210B9DBB2994212D04B1CDBB2402B0B4828BF0023405C93701379074CC0B20BB100232371074B01221A6010BC7047054B1878C0B2F6E780E100E0CA
:4013C0007081FF1F8081FF1F00E100E04A650040104A0121104B11609978DA7891420FD09978DA789142DA78987824BF02F14003181A0A4B38BF101A0122C0B21A60704793
:401400001B790122002B054B14BF402000201A60704700BF80E100E07081FF1F00E100E010B5FFF7A5FE0B4B0B4C1A7842F001021A701A7802F0FE021A70FFF79DFE074BD9
:4014400000220121064821609A70DA701A715A71016010BD9A65004080E100E07081FF1F00E100E070B4194DEC79AB792646DBB2591EE21A091BA2F13F02B1FA81F1B2FAF1
:4014800082F249095209A34288BF0A46002AECD1A34212D03F2C0E4A88BF00260D4B90551B789ABF0134E4B201249B07EC7102D5094B02221A6070BC7047064B1B785A07A8
:4014C000E8D4064B187070BC704700BF7081FF1FC081FF1F6B65004000E200E04865004010B5FFF745FE0A4B0A4C1A7842F001021A701A7802F0FE021A70FFF73DFE064AFF
:401500000223002105482360D1719171036010BD9865004080E100E07081FF1F00E100E02DE9F0431C481D491D4F1E4A1E4E1F4CDFF880C01E4D4FF0010E0378DBB213F03A
:401540001E0905D091F8008049EA080881F800809B0601D4BDE8F08397F8008013785FFA88F8DBB206F8038023784FF000080BB18CF800E013780133DBB2137013783F2B55
:4015800088BF82F8008092F800802B789845D4D184F800E0D1E700BF696400407181FF1F4A6500407381FF1F8081FF1F7481FF1F7281FF1F7581FF1F144A154813780178B4
:4015C000994221D0F0B513490B7803F0040303F0FF06C3B91746104D104C02E00B785B0711D413783F2B88BF3E701378DBB2EB5CDBB22370137890F800E00133DBB21370CB
:4016000013789E45EAD1F0BD704700BF7681FF1F7781FF1F6B650040C081FF1F486500400549064A0B7843F001030B70137843F001031370704700BFA2430040B2430040EF
:401640000549064A0B7803F0FE030B70137803F0FE031370704700BFA2430040B2430040014B1868704700BF4481FF1F0E4B70B51E460E4C0025E41AA410A54204D056F8C7
:40168000253098470135F8E700F08CFA084B094C1E46E41AA4100025A54204D056F8253098470135F8E770BDB01B0000B01B0000B01B0000B81B000010B5431E0A4491428E
:4016C00004D011F8014B03F8014FF8E710BD884210B501EB020301D8421E0BE09842FBD28118D21AD34204D013F8014D01F8014DF8E710BD994204D011F8014B02F8014F77
:40170000F8E710BD03460244934202D003F8011BFAE77047001D0000ED00000000000000005100401000205100401000405100403000F051004010000000014000100014B5
:4017400001400006801A0140800100400140000A004C014000020050014020001090000040000000CF083042C3003C0800100000082000000020F3000C30F3003D0FC0F055
:4017800008000084023F20C004F800010C3900C6430010C740318C003F0000FF00002800000000402105040003EC000003FFFFFF62A0F0410C00000000000000040404044F
:4017C0000000000100000000000040020010301000101012000000000000000000000000000000000152004001640040026500400107014054080140370901400414014085
:4018000003150140011701404D180140411901400D1A0140411B0140034001400241014002420140044301400147014002480140084C01400E4D014004500140015101402E
:401840000914893A89698B0FE60203010461060E071809480A400B860E0811801365142C15E61643171119601B8B1E43206121A02206260C28102D802F023020320F330774
:40188000341035F8364038023A083B083E504003474049FF4A074BFF4C404D204EF04F055008580459045A045F01604061A8624063208320850387048A028B088D038E022A
:4018C0008F0C9001950A9704980199039B04A310A710A801AF05B001B10FB320B510B602BB02BE40BF10D41AD604D804D904DB04DF0100A005800605071008800A450E2010
:401900000F0211101502161819401B021D241E211F0120402105220223042404271029012B212D802E023104331035043602371038523A143C143E083F0245084F025601C3
:4019400059025A206140634485208740C0E3C2AAC472CA9BCCE6CEEFD040D605D80DE008B980BF40D904DF012680A680B280EA0801020B011001140419011E022006280662
:401980002D01320633033401380839083E1440454102460E47BC483449FF4AFF4BFF4EF04F44500C580459045A045F0166C06A406B0284038508860C89088D088E0E900232
:4019C00091089208953D960F9702980299239A049B1C9D1E9F01A127A318A501A716A80CA926AA03AB19AC03AE0CAF1FB320B401B508B60EB71FB820BA80BB80BF04D602C6
:401A0000D712D804D904DB04DF01000403020520060408280A800E300F821209150216C0171019801BA01D081E082254241028282A012B8A2E8031143249371038A83E10F9
:401A40003F02464047104E02560657405A0869106A46705C79017A027B41910A941295109664978098809B109D039E06A210A303A450A508A720AF40B701C005C2BEC4533B
:401A8000CA1FCC2FCEAED0A0D210D602840188018C019601A201AE02B203BA08D401D604D804DB04DF0100440380059408120A120E101048114012101580164018041916A1
:401AC0001E101F0820802142281229042A402B8A30483110324138E239083A1040264102481049815C805D215E0867806A4082408C218D4090A09109928294069780988038
:401B000099A09C209D17A008A204A382A450A708C0EDC22FC49FCA0FCC0FCE0FD00FD208D6F0D880E004E88030103580CC309C109D809C109D8084109C109D80E640862085
:401B4000AD80EA105840620199089A20B508D401D802E80212807220750882018E8099089A209E01B040C408DC01DE04E202E80100010C0110011C01000F00004090900073
:401B80009000000010140400140000000000000101000000000000006910162E003C010143000000F8B500BFF8BC08BC9E4670475100000011030000F8B500BFF8BC08BC51
:401BC0009E4670472D000000D81B0000C880FF1F80000000B8000000000000001417000018170000180000000000E02EC05D000000366E010000000000000000000000004A
:401C00000000000000000000000000000000000000000000A01B000000000000000000000000000000000000000000000000000000000000000000000000000000000000E9
:401C40000000000000000000000000000000000000000000E480FF1F00000000000000000000000000000000000000000000000000000000000000000000000000000000E2
:401C80000000000000000000000000000000000000000000000000000000000000000000000000000000000000000000000000000000000000000000000000000000000024
:401CC00000000000000000000000000000000000000000000000000000000000000000000000000000000000000000000000000000000000000000000000000000000000E4
:401D000000800020111D00003DE300003DE3000080B500AF0CF046FB10B5054C237833B9044B13B10448AFF300800123237010BD5882FF1F00000000C8780100084B10B581
:401D40001BB108490848AFF300800848036803B910BD074B002BFBD0BDE81040184700BF000000005C82FF1FC8780100C880FF1F0000000080B58CB000AFE44B1B7887F831
:401D80002F30E24BB3F98030DBB2013BDBB21946DE4808F037FE03461946DC4BB3F98030013BDA4AD35C994204D0D84B002283F8842061E297F82F30A82B00F25C8201A2EF
:401DC00052F823F0ED200000CF20000077220000F3200000F92000001D210000B72000007722000077220000512100003721000077220000D52000007321000077220000F9
:401E00007722000077220000772200007722000077220000772200007722000077220000772200007722000077220000772200007722000077220000772200007722000012
:401E400077220000772200007722000077220000772200007722000077220000772200007722000077220000772200007722000077220000772200007722000077220000D2
:401E80007722000077220000772200007722000077220000772200007722000077220000772200007722000077220000772200007722000077220000772200007722000092
:401EC0007722000077220000772200007722000077220000772200007722000077220000772200007722000077220000772200007722000077220000772200007722000052
:401F00007722000077220000772200007722000077220000772200007722000077220000772200007722000077220000772200007722000077220000772200007722000011
:401F400077220000772200007722000077220000772200007722000077220000772200007722000077220000772200007722000077220000772200007722000077220000D1
:401F80007722000077220000772200007722000077220000772200007722000077220000772200007722000077220000772200007722000077220000772200007722000091
:401FC0007722000069200000A52000006F200000B120000075200000812000007B200000772200009F2000008D20000077220000932000008720000077220000772200009F
:4020000077220000AB2000007722000099200000772200007722000077220000772200007722000077220000772200007722000077220000772200007722000077220000BE
:40204000772200007722000011220000172200002F220000352200003B22000041220000472200005F22000009F088FB04E109F069FB01E109F0ECF9FEE009F0B3FBFBE092
:4020800009F04CFCF8E009F0BFFCF5E009F074FAF2E009F0CDFAEFE009F026FBECE009F03DFEE9E009F084FBE6E009F0DFFCE3E009F006FDE0E0164B1B88BB61BB695BBAE9
:4020C0007B617B699BB2184600F0E2F8D4E004F095FED1E00E4B1B88BB62BB6A5BBA3B613B699BB2184602F0F7FAC5E009F0D8FCC2E009F035FDBFE0322008F0BBFC034676
:40210000002B07D0012008F09DFCB5E0A494FF1FA594FF1F002008F095FCADE008F036FD0346002B03D0012008F08CFCA4E0002008F088FCA0E008F057FD0346002B03D02D
:40214000012008F07FFC97E0002008F07BFC93E0012008F077FC4FF47A700DF049FD00200CF0D6FB4FF47A700DF042FD0DF040FF82E0434B5B781B021AB2414B9B781BB2AC
:4021800013431AB23F4B5A803D4BDB781B021AB23B4B1B791BB213431AB23A4B9A80394BB3F90230B3F1FF3F0FD1364BB3F90430B3F1FF3F09D1334B00221A70314B002224
:4021C0005A80304B00229A8056E02E4BB3F90230002B03DA2B4B00225A8007E0294BB3F90230C82B02DD274BC8225A80254BB3F90430002B02DA234B00229A80224B002276
:402200001A60204B01221A70012008F01BFC33E009F0B4FD30E01D4B1B887B627B6A5BBAFB60FB689BB2184603F0EEFE24E00AF071F821E00AF0B4F81EE00AF027F91BE0C4
:402240000AF052F918E0114B1B883B623B6A5BBABB60BB689BB218460AF0A6F90CE00B4B1B88FB61FB695BBA7B607B689BB218460AF044FA00E000BF3037BD4680BD00BFE9
:40228000A494FF1F2C95FF1F3CA3FF1FA594FF1F80B5ADF5BB4D92B000AF024607F14803423B1A8007F59C4303F1280300221A60043340F69C720021184612F000FE07F19B
:4022C0004803403B00221A60043344F61C620021184612F0F4FD07F14803423B1B88062B7DD801A252F823F00523000027230000492300007123000093230000B123000036
:40230000B723000007F59C4303F12803184604F0BDFD0CF0C1FE07F59C4303F1280318460CF098FE5CE007F59C4303F12803184606F0A0FB0CF0B0FE07F59C4303F128034F
:4023400018460CF087FE4BE007F59C4303F128034FF47A62194625480BF0A2F90CF09CFE07F59C4303F1280318460CF073FE37E007F14803403B44F6206118460BF0C0F9DB
:402380000CF08AFE07F14803403B18460CF062FE26E007F14803403B18460BF0BDFA0CF07BFE07F14803403B18460CF053FE17E00BF0DCF914E007F59C4303F128034FF477
:4023C0007A6219460A480BF06BF90CF065FE07F59C4303F1280318460CF03CFE00E000BF00BF07F5BB474837BD4680BDF482FF1F3C81FF1FF0B5ADF65C4D00AF07F10C04D2
:40240000206007F108000160391D0A603A46136007F1580300221A60043340F6E6320021184612F04CFD40F6EA33A7F8503C002387F8553C002387F8543C002387F8533CB6
:4024400007F1240300221A6004332E220021184612F035FD002387F84F3C012387F84E3C07F10C031B681B68C7F8483CD7F8483CC7F8443C07F158030C221A7007F15803CD
:4024800024225A70002387F8553C02F0AFB897F8553C9B0007F10C02126813441B68C7F8483C97F8553C322202FB03F3023397F8552C07F1080109680A44117807F15802E1
:4024C000D15497F8553C322202FB03F3033397F8552C391D09680A44117807F15802D15497F8553C07F10802126813441B78092B22D801A252F823F02125000021250000B5
:402500002125000029250000292500003125000031250000312500003925000021250000012387F8533C07E0022387F8533C03E0042387F8533C00BF97F8553CD7F8782C5D
:4025400013441B78002B40F02A8297F8553C07F10802126813441B78092B01F2208301A252F823F08D250000F52500008D2500005D26000005270000AB27000051280000A2
:40258000F72800009F3B00008D250000002387F8573C23E097F8573C97F8532C02FB03F31A46D7F8483C1344C7F8443C97F8553C322202FB03F31A1D97F8573C97F8531C0E
:4025C00001FB03F31344D7F8442C117807F15802D15497F8573C013387F8573C97F8553C3A1D126813441B7897F8572C9A42D1D301F0D5BA002387F8573C23E097F8573CA4
:4026000097F8532C02FB03F31A46D7F8483C1344C7F8443C97F8553C322202FB03F31A1D97F8573C97F8531C01FB03F31344D7F8442C117807F15802D15497F8573C0133B4
:4026400087F8573C97F8553C3A1D126813441B7897F8572C9A42D1D301F0A1BA002387F8573C43E097F8573C97F8532C02FB03F31A46D7F8483C1344C7F8443CD7F8443C7C
:40268000B3F9002007F11E031A80002387F8563C21E097F8553C322202FB03F31A1D97F8573C97F8531C01FB03F31A4497F8533C1A4497F8563CD31A013B97F8562C07F189
:4026C0001E010A44117807F15802D15497F8563C013387F8563C97F8562C97F8533C9A42D7D397F8573C013387F8573C97F8553C3A1D126813441B7897F8572C9A42B1D39D
:4027000001F04DBA002387F8573C42E097F8573C97F8532C02FB03F31A46D7F8483C1344C7F8443CD7F8443C1A8807F11C031A80002387F8563C21E097F8553C322202FB96
:4027400003F31A1D97F8573C97F8531C01FB03F31A4497F8533C1A4497F8563CD31A013B97F8562C07F11C010A44117807F15802D15497F8563C013387F8563C97F8562C0B
:4027800097F8533C9A42D7D397F8573C013387F8573C97F8553C3A1D126813441B7897F8572C9A42B2D301F0FAB9002387F8573C42E097F8573C97F8532C02FB03F31A4641
:4027C000D7F8483C1344C7F8443CD7F8443C1A6807F118031A60002387F8563C21E097F8553C322202FB03F31A1D97F8573C97F8531C01FB03F31A4497F8533C1A4497F844
:40280000563CD31A013B97F8562C07F118010A44117807F15802D15497F8563C013387F8563C97F8562C97F8533C9A42D7D397F8573C013387F8573C97F8553C3A1D1268F9
:4028400013441B7897F8572C9A42B2D301F0A7B9002387F8573C42E097F8573C97F8532C02FB03F31A46D7F8483C1344C7F8443CD7F8443C1A6807F114031A60002387F8EB
:40288000563C21E097F8553C322202FB03F31A1D97F8573C97F8531C01FB03F31A4497F8533C1A4497F8563CD31A013B97F8562C07F114010A44117807F15802D15497F8B6
:4028C000563C013387F8563C97F8562C97F8533C9A42D7D397F8573C013387F8573C97F8553C3A1D126813441B7897F8572C9A42B2D301F054B9002387F8573C42E097F8B2
:40290000573C97F8532C02FB03F31A46D7F8483C1344C7F8443CD7F8443C1A6807F120031A60002387F8563C21E097F8553C322202FB03F31A1D97F8573C97F8531C01FB65
:4029400003F31A4497F8533C1A4497F8563CD31A013B97F8562C07F120010A44117807F15802D15497F8563C013387F8563C97F8562C97F8533C9A42D7D397F8573C013354
:4029800087F8573C97F8553C3A1D126813441B7897F8572C9A42B2D300BF01F000B997F8553C0133023B332B01F2F88001A252F823F000BF852A0000A52D00009D3B0000DC
:4029C0009D3B00009D3B00009D3B0000C13000009D3B00009D3B0000B13100009D3B00009D3B00009D3B00009D3B00009D3B00009D3B00009D3B00009D3B00009D3B000034
:402A00009D3B00009D3B0000DF3200009D3B00009D3B00009D3B00009D3B00009D3B00009D3B00009D3B00009D3B00009D3B00009D3B00009D3B00009D3B00009D3B0000DD
:402A40009D3B00009D3B00009D3B00009D3B00009D3B00009D3B00009D3B000067330000873600009D3B00009D3B00009D3B00009D3B0000A33900009D3B00009D3B00002B
:402A8000673A000097F84F2CC5491346DB009B1A1B010B4403F20F131B78032B00F0C08097F84F2CBE491346DB009B1A1B010B44B0331B68184612F001F803464FF08F4185
:402AC000184612F003F903461A4607F120031A60002387F8573C1AE097F8553C322202FB03F31A1D97F8533C1A4497F8573CD31A013B97F8572C07F120010A44117807F1AE
:402B00005802D15497F8573C013387F8573C97F8572C97F8533C9A42DED397F84F2CA0491346DB009B1A1B010B44B4331B68184611F0C4FF03464FF08F41184612F0C6F8A8
:402B400003461A4607F120031A60002387F8573C1DE097F8553C322202FB03F31A1D97F8533C1A4497F8533C1A4497F8573CD31A013B97F8572C07F120010A44117807F10A
:402B80005802D15497F8573C013387F8573C97F8572C97F8533C9A42DBD397F84F2C80491346DB009B1A1B010B44B8331B68184611F084FF03464FF08F41184612F086F8C7
:402BC00003461A4607F120031A60002387F8573C1EE097F8553C322202FB03F31A1D97F8533C5B001A4497F8533C1A4497F8573CD31A013B97F8572C07F120010A44117826
:402C000007F15802D15497F8573C013387F8573C97F8572C97F8533C9A42DAD300F0BFBF97F84F2C5E491346DB009B1A1B010B44C8331B68184611F041FF03464FF08F4114
:402C4000184612F043F803461A4607F120031A60002387F8573C1AE097F8553C322202FB03F31A1D97F8533C1A4497F8573CD31A013B97F8572C07F120010A44117807F1ED
:402C80005802D15497F8573C013387F8573C97F8572C97F8533C9A42DED397F84F2C40491346DB009B1A1B010B44CC331B68184611F004FF03464FF08F41184612F006F8EF
:402CC00003461A4607F120031A60002387F8573C1DE097F8553C322202FB03F31A1D97F8533C1A4497F8533C1A4497F8573CD31A013B97F8572C07F120010A44117807F189
:402D00005802D15497F8573C013387F8573C97F8572C97F8533C9A42DBD397F84F2C20491346DB009B1A1B010B44D0331B68184611F0C4FE03464FF08F41184611F0C6FF08
:402D400003461A4607F120031A60002387F8573C1EE097F8553C322202FB03F31A1D97F8533C5B001A4497F8533C1A4497F8573CD31A013B97F8572C07F120010A441178A4
:402D800007F15802D15497F8573C013387F8573C97F8572C97F8533C9A42DAD300F0FFBE08A0FF1F97F84F2CC7491346DB009B1A1B010B4403F20F131B78032B00F0C08092
:402DC00097F84F2CC0491346DB009B1A1B010B44BC331B68184611F071FE03464FF08F41184611F073FF03461A4607F120031A60002387F8573C1AE097F8553C322202FB25
:402E000003F31A1D97F8533C1A4497F8573CD31A013B97F8572C07F120010A44117807F15802D15497F8573C013387F8573C97F8572C97F8533C9A42DED397F84F2CA2490B
:402E40001346DB009B1A1B010B44C0331B68184611F034FE03464FF08F41184611F036FF03461A4607F120031A60002387F8573C1DE097F8553C322202FB03F31A1D97F86E
:402E8000533C1A4497F8533C1A4497F8573CD31A013B97F8572C07F120010A44117807F15802D15497F8573C013387F8573C97F8572C97F8533C9A42DBD397F84F2C8249EE
:402EC0001346DB009B1A1B010B44C4331B68184611F0F4FD03464FF08F41184611F0F6FE03461A4607F120031A60002387F8573C1EE097F8553C322202FB03F31A1D97F86B
:402F0000533C5B001A4497F8533C1A4497F8573CD31A013B97F8572C07F120010A44117807F15802D15497F8573C013387F8573C97F8572C97F8533C9A42DAD300F02FBE0B
:402F400097F84F2C60491346DB009B1A1B010B44D4331B68184611F0B1FD03464FF08F41184611F0B3FE03461A4607F120031A60002387F8573C1AE097F8553C322202FB6D
:402F800003F31A1D97F8533C1A4497F8573CD31A013B97F8572C07F120010A44117807F15802D15497F8573C013387F8573C97F8572C97F8533C9A42DED397F84F2C4249EA
:402FC0001346DB009B1A1B010B44D8331B68184611F074FD03464FF08F41184611F076FE03461A4607F120031A60002387F8573C1DE097F8553C322202FB03F31A1D97F857
:40300000533C1A4497F8533C1A4497F8573CD31A013B97F8572C07F120010A44117807F15802D15497F8573C013387F8573C97F8572C97F8533C9A42DBD397F84F2C2249CC
:403040001346DB009B1A1B010B44DC331B68184611F034FD03464FF08F41184611F036FE03461A4607F120031A60002387F8573C1EE097F8553C322202FB03F31A1D97F851
:40308000533C5B001A4497F8533C1A4497F8573CD31A013B97F8572C07F120010A44117807F15802D15497F8573C013387F8573C97F8572C97F8533C9A42DAD300F06FBD4B
:4030C000002387F8573C67E008A0FF1F97F84F2CD8491346DB009B1A1B010B4403F588731B78184697F8572CD34903465B0003449B001344663351F8231097F84F2CCD48EC
:403100001346DB009B1A1B01034403F588731B781C4697F8572CC84823465B0023441B010344134403F295131B7841FA03F31AB207F11E031A80002387F8563C21E097F8B0
:40314000553C322202FB03F31A1D97F8573C97F8531C01FB03F31A4497F8533C1A4497F8563CD31A013B97F8562C07F11E010A44117807F15802D15497F8563C013387F8C0
:40318000563C97F8562C97F8533C9A42D7D397F8573C013387F8573C97F8553C3A1D126813441B7897F8572C9A428FD300F0F7BC97F84F2CA0491346DB009B1A1B010B444B
:4031C000E433196897F84F2C9A481346DB009B1A1B01034403F588731B781846964A03465B0003441B01134403F295131B7841FA03F207F118031A60002387F8563C1AE0C2
:4032000097F8553C322202FB03F31A1D97F8533C1A4497F8563CD31A013B97F8562C07F118010A44117807F15802D15497F8563C013387F8563C97F8562C97F8533C9A4249
:40324000DED397F84F2C7C491346DB009B1A1B010B44E833196897F84F2C76481346DB009B1A1B01034403F588731B781846724A03465B0003441B01134403F295131B789C
:4032800041FA03F207F118031A60002387F8563C1DE097F8553C322202FB03F31A1D97F8533C1A4497F8533C1A4497F8563CD31A013B97F8562C07F118010A44117807F14F
:4032C0005802D15497F8563C013387F8563C97F8562C97F8533C9A42DBD300F060BC564BD3F8A01297F84F2C52481346DB009B1A1B01034403F588731B7818464E4A034651
:403300005B0003441B01134403F295131B7841FA03F207F118031A60002387F8563C1AE097F8553C322202FB03F31A1D97F8533C1A4497F8563CD31A013B97F8562C07F1F0
:4033400018010A44117807F15802D15497F8563C013387F8563C97F8562C97F8533C9A42DED300F01CBC97F84E2C33491346DB009B1A1B010B4403F20F131B78032B00F05B
:40338000C38097F84E2C2C491346DB009B1A1B010B44B0331B68184611F090FB03464FF08F41184611F092FC03461A4607F120031A60002387F8573C1AE097F8553C322282
:4033C00002FB03F31A1D97F8533C1A4497F8573CD31A013B97F8572C07F120010A44117807F15802D15497F8573C013387F8573C97F8572C97F8533C9A42DED397F84E2C35
:403400000D491346DB009B1A1B010B44B4331B68184611F053FB03464FF08F41184611F055FC03461A4607F120031A60002387F8573C21E0DCA4FF1F08A0FF1F97F8553CCB
:40344000322202FB03F31A1D97F8533C1A4497F8533C1A4497F8573CD31A013B97F8572C07F120010A44117807F15802D15497F8573C013387F8573C97F8572C97F8533C7A
:403480009A42DBD397F84E2CD2491346DB009B1A1B010B44B8331B68184611F00FFB03464FF08F41184611F011FC03461A4607F120031A60002387F8573C1EE097F8553CDE
:4034C000322202FB03F31A1D97F8533C5B001A4497F8533C1A4497F8573CD31A013B97F8572C07F120010A44117807F15802D15497F8573C013387F8573C97F8572C97F82E
:40350000533C9A42DAD34AE397F84E2CB1491346DB009B1A1B010B44C8331B68184611F0CDFA03464FF08F41184611F0CFFB03461A4607F120031A60002387F8573C1AE05D
:4035400097F8553C322202FB03F31A1D97F8533C1A4497F8573CD31A013B97F8572C07F120010A44117807F15802D15497F8573C013387F8573C97F8572C97F8533C9A42F9
:40358000DED397F84E2C93491346DB009B1A1B010B44CC331B68184611F090FA03464FF08F41184611F092FB03461A4607F120031A60002387F8573C1DE097F8553C32228E
:4035C00002FB03F31A1D97F8533C1A4497F8533C1A4497F8573CD31A013B97F8572C07F120010A44117807F15802D15497F8573C013387F8573C97F8572C97F8533C9A4271
:40360000DBD397F84E2C73491346DB009B1A1B010B44D0331B68184611F050FA03464FF08F41184611F052FB03461A4607F120031A60002387F8573C1EE097F8553C3222AB
:4036400002FB03F31A1D97F8533C5B001A4497F8533C1A4497F8573CD31A013B97F8572C07F120010A44117807F15802D15497F8573C013387F8573C97F8572C97F8533C71
:403680009A42DAD38BE297F84E2C52491346DB009B1A1B010B4403F20F131B78032B00F0C18097F84E2C4B491346DB009B1A1B010B44BC331B68184611F000FA03464FF0CF
:4036C0008F41184611F002FB03461A4607F120031A60002387F8573C1AE097F8553C322202FB03F31A1D97F8533C1A4497F8573CD31A013B97F8572C07F120010A441178CA
:4037000007F15802D15497F8573C013387F8573C97F8572C97F8533C9A42DED397F84E2C2C491346DB009B1A1B010B44C0331B68184611F0C3F903464FF08F41184611F0D3
:40374000C5FA03461A4607F120031A60002387F8573C1DE097F8553C322202FB03F31A1D97F8533C1A4497F8533C1A4497F8573CD31A013B97F8572C07F120010A44117837
:4037800007F15802D15497F8573C013387F8573C97F8572C97F8533C9A42DBD397F84E2C0C491346DB009B1A1B010B44C4331B68184611F083F903464FF08F41184611F0B2
:4037C00085FA03461A4607F120031A60002387F8573C20E008A0FF1F97F8553C322202FB03F31A1D97F8533C5B001A4497F8533C1A4497F8573CD31A013B97F8572C07F1CB
:4038000020010A44117807F15802D15497F8573C013387F8573C97F8572C97F8533C9A42DAD3BCE197F84E2CDA491346DB009B1A1B010B44D4331B68184611F03FF9034671
:403840004FF08F41184611F041FA03461A4607F120031A60002387F8573C1AE097F8553C322202FB03F31A1D97F8533C1A4497F8573CD31A013B97F8572C07F120010A4454
:40388000117807F15802D15497F8573C013387F8573C97F8572C97F8533C9A42DED397F84E2CBC491346DB009B1A1B010B44D8331B68184611F002F903464FF08F411846E3
:4038C00011F004FA03461A4607F120031A60002387F8573C1DE097F8553C322202FB03F31A1D97F8533C1A4497F8533C1A4497F8573CD31A013B97F8572C07F120010A44FF
:40390000117807F15802D15497F8573C013387F8573C97F8572C97F8533C9A42DBD397F84E2C9C491346DB009B1A1B010B44DC331B68184611F0C2F803464FF08F411846C2
:4039400011F0C4F903461A4607F120031A60002387F8573C1EE097F8553C322202FB03F31A1D97F8533C5B001A4497F8533C1A4497F8573CD31A013B97F8572C07F12001B1
:403980000A44117807F15802D15497F8573C013387F8573C97F8572C97F8533C9A42DAD3FDE097F84E2C7C491346DB009B1A1B010B4403F588731B78184697F8572C7549E5
:4039C00003465B0003449B001344663351F8231097F84E2C70481346DB009B1A1B01034403F588731B781C4697F8572C694823465B0023441B010344134403F295131B7808
:403A000041FA03F31AB207F11E031A80002387F8563C21E097F8553C322202FB03F31A1D97F8573C97F8531C01FB03F31A4497F8533C1A4497F8563CD31A013B97F8562CBC
:403A400007F11E010A44117807F15802D15497F8563C013387F8563C97F8562C97F8533C9A42D7D39BE097F84E2C4A491346DB009B1A1B010B44E433196897F84E2C46482C
:403A80001346DB009B1A1B01034403F588731B781846404A03465B0003441B01134403F295131B7841FA03F207F118031A60002387F8563C1AE097F8553C322202FB03F36C
:403AC0001A1D97F8533C1A4497F8563CD31A013B97F8562C07F118010A44117807F15802D15497F8563C013387F8563C97F8562C97F8533C9A42DED397F84E2C2549134667
:403B0000DB009B1A1B010B44E833196897F84E2C21481346DB009B1A1B01034403F588731B7818461B4A03465B0003441B01134403F295131B7841FA03F207F118031A609C
:403B4000002387F8563C1DE097F8553C322202FB03F31A1D97F8533C1A4497F8533C1A4497F8563CD31A013B97F8562C07F118010A44117807F15802D15497F8563C01336F
:403B800087F8563C97F8562C97F8533C9A42DBD305E000BF08A0FF1FDCA4FF1F00BF97F8553C9B00D7F8742C13441A6807F124031146184611F04CFF07F12403184611F0D3
:403BC0008CFF034687F8523C97F8553C07F10802126813441B78002B40F0628497F8543CD7F8702C13441B78013B0B2B00F24E8401A252F823F000BF293C0000AF3D000063
:403C00006D3E0000B33E0000093F0000573F000065400000DB4000005D410000F5410000EF42000019440000D7F8483C1B78072B00F2258401A252F823F000BF5D3C0000DD
:403C40007D3C00009F3C0000C93C0000F13C0000173D0000473D00006D3D000007F12403184611F03AFF03461A4607F124031344D34A1068186012791A7197E007F124036D
:403C8000184611F02AFF03461A4607F124031344CC491A460B4603CB1060516086E007F12403184611F019FF03461A4607F124031344C54A1D4614460FCC28606960AA608B
:403CC000EB6023882B8271E007F12403184611F004FF03461A4607F124031344BB4A1C46134607CB20606160A2601B88A3815DE007F12403184611F0F0FE03461A4607F14A
:403D000024031344B2491A460B4603CB106051601B8813814AE007F12403184611F0DDFE03461A4607F124031344AA4A1D4614460FCC28606960AA60EB602388A2782B82ED
:403D40001346AB7432E007F12403184611F0C5FE03461A4607F1240313449F491A460B4603CB106051601B8813811FE007F12403184611F0B2FE03461A4607F1240313444E
:403D8000964A14469E4604F1200C754626460FCE28606960AA60EB6010340EF1100E6445F3D1724623461B88138000BF67E3D7F8483C1B78032B00F2648301A252F823F0FF
:403DC000D13D0000F73D0000173E00003D3E000007F12403184611F080FE03461A4607F1240313447E491A460B4603CB106051601B88138139E007F12403184611F06DFEF6
:403E000003461A4607F124031344764A1068186012791A7129E007F12403184611F05DFE03461A4607F1240313446F491A460B4603CB106051601B78137216E007F1240317
:403E4000184611F04AFE03461A4607F124031344664A1D4614460FCC28606960AA60EB6020682861A388AB8200BF0AE3D7F8483C1B78002B0FD007F12403184611F02DFEE0
:403E800003461A4607F124031344594A1068186012791A71FAE207F12403184611F01DFE03461A4607F124031344524A10681860ECE2D7F8483C1B78002B02D0012B12D05B
:403EC000E4E207F12403184611F007FE03461A4607F124031344484A106818609188927999809A710FE007F12403184611F0F5FD03461A4607F124031344404A1068186098
:403F000092889A8000BFC1E2D7F8483C1B78002B02D0012B10D0B9E207F12403184611F0DCFD03461A4607F124031344344A1068186012791A710DE007F12403184611F0FC
:403F4000CCFD03461A4607F1240313442D4A1068186000BF9AE2D7F8483C1B78032B00F2928201A252F823F0793F0000993F0000114000003B40000007F12403184611F0C3
:403F8000ACFD03461A4607F1240313441E4A1068186092889A8064E007F12403184611F09CFD03461A4607F124031344174A1C46134607CB20606160A2601B88A38150E00B
:403FC000D0780100D8780100E0780100F478010004790100107901002479010030790100547901006079010068790100747901008C790100947901009C790100A479010051
:40400000AC790100B4790100BC790100C479010007F12403184611F060FD03461A4607F124031344CF4A1D4614460FCC28606960AA60EB6023882B8213E007F1240318469F
:4040400011F04BFD03461A4607F124031344C64A1C46134607CB20606160A2601B78237300BF10E2D7F8483C1B78012B14D0022B22D0002B00D02FE007F12403184611F081
:404080002CFD03461A4607F124031344B74A1068186092889A801FE007F12403184611F01CFD03461A4607F124031344B04A1068186012791A710FE007F12403184611F071
:4040C0000CFD03461A4607F124031344A94A1068186092889A8000BFD8E1D7F8483C1B78012B18D0022B28D0002B00D0CEE107F12403184611F0F1FC03461A4607F124030D
:4041000013449D4A1C46134607CB20606160A2601B88A38121E007F12403184611F0DDFC03461A4607F124031344944A106818609188927999809A710FE007F124031846B1
:4041400011F0CBFC03461A4607F1240313448C4A1068186012791A7100BF97E1D7F8483C1B78012B19D0022B2ED0002B00D08DE107F12403184611F0B0FC03461A4607F1EB
:40418000240313447F4A1D4614460FCC28606960AA60EB60206828612BE007F12403184611F09BFC03461A4607F124031344764A1D4614460FCC28606960AA60EB602068A4
:4041C0002861A388AB8214E007F12403184611F084FC03461A4607F1240313446B4A1D4614460FCC28606960AA60EB6023782B7400BF4BE1D7F8483C1B78042B00F24581E8
:4042000001A252F823F000BF1D420000454200006F42000097420000BD42000007F12403184611F05AFC03461A4607F124031344574A1C46134607CB20606160A2601B8849
:40424000A38153E007F12403184611F046FC03461A4607F1240313444E4A1D4614460FCC28606960AA60EB6023882B823EE007F12403184611F031FC03461A4607F1240349
:404280001344454A1C46134607CB20606160A2601B88A3812AE007F12403184611F01DFC03461A4607F1240313443C4A1C4615460FCD20606160A260E36017E007F1240306
:4042C000184611F00AFC03461A4607F124031344334A1D4614460FCC28606960AA60EB602388A2782B821346AB7400BFCDE0D7F8483C1B78002B02D0012B59D0C6E0294BD7
:4043000093F8AC30042B16D107F12403184611F0E4FB03461A4607F124031344224A1D4614460FCC28606960AA60EB6020682861A388AB826FE007F12403184611F0CDFBDC
:4043400003461A4607F124031344184A1D4614460FCC28606960AA60EB6020682861A388AB8258E0D4790100E8790100BC790100F8790100007A0100087A0100187A0100F4
:40438000207A0100287A0100407A0100587A01006C7A01007C7A0100907A0100A07A0100B47A010008A0FF1FC87A0100E07A0100C44B93F8AC30042B16D107F12403184691
:4043C00011F08BFB03461A4607F124031344BE4A1D4614460FCC28606960AA60EB6020682861A388AB8215E007F12403184611F074FB03461A4607F124031344B34A1D4607
:4044000014460FCC28606960AA60EB6020682861A388AB8200BF39E0D7F8483C1B78002B02D0012B15D031E007F12403184611F054FB03461A4607F124031344A44A1D461E
:4044400014460FCC28606960AA60EB602068286114E007F12403184611F03FFB03461A4607F1240313449B4A1D4614460FCC28606960AA60EB602068286100BF06E000BFED
:4044800004E000BF02E000BF00E000BF07F12403184611F022FB0346DBB2013387F8523C97F8523C87F8573C26E097F8553C322202FB03F31A1D97F8533C97F8551C381D21
:4044C00000680144097801FB03F31A4497F8523C1A4497F8573CD31A97F8521C97F8572C8A1A07F12401895C07F15802D15497F8573C013B87F8573C97F8573C002BD4D126
:4045000097F8553C07F10802126813441B78002B21D197F8553C322202FB03F31A1D97F8533C97F8551C381D00680144097801FB03F31A4497F8523C134497F8542CD7F8F7
:40454000701C0A44117807F15802D15497F8543C013387F8543C97F8553C07F10802126813441B78002B1ED197F8553C322202FB03F31A1D97F8533C97F8551C381D0068E6
:404580000144097801FB03F31A4497F8523C1344023397F8552C394609680A44117807F15802D1541DE097F8553C322202FB03F31A1D97F8533C97F8551C381D0068014433
:4045C000097801FB03F31A4497F8523C1344013397F8552C394609680A44117807F15802D15497F8553C013387F8553C97F8553C232B7DF64CAF002387F8563C3DE097F8D4
:40460000563C9B00D7F87C2C13441B68184611F064FA034687F8523C97F8523C87F8573C22E097F8563C962202FB03F303F20A7297F8523C1A4497F8573CD31A97F8562CE0
:404640009200D7F87C1C0A44126897F8520C97F8571C411A0A44117807F15802D15497F8573C013B87F8573C97F8573C002BD8D197F8563C013387F8563C97F8563C072BC2
:40468000BDD9B7F8503C5C1EB7F8503CDBB2013BDAB207F158031146184606F0B3F903461A4607F158031A55B7F8502C07F158031146184606F012F900BF07F65C47BD4674
:4046C000F0BD00BF08A0FF1FF87A0100107B0100287B0100407B0100B0B5ADF5B36D04AF0246BB1D1A80002387F87D35012387F87C35054BC7F88035BB1D1B88002B07D0AC
:40470000024BC7F8803503E008A0FF1FDCA4FF1FD7F8803503F1A00207F21C431A6097F87D251346DB009B1A1B01B033D7F880251A4407F21C435A6097F87D251346DB0023
:404740009B1A1B01B833D7F8802513441A1D07F21C439A6097F87D251346DB009B1A1B01E033D7F880251A4407F21C43DA6097F87D251346DB009B1A1B0103F58473D7F888
:40478000802513449A1D07F21C431A6197F87D251346DB009B1A1B0103F58473D7F880251344DA1D07F21C435A6197F87D25D7F880151346DB009B1A1B010B4403F588739D
:4047C0001B781A4613465B0013441B0103F5C873D7F8802513445A1D07F21C439A6197F87D25D7F880151346DB009B1A1B010B4403F588731B781A4613465B0013441B01E1
:4048000003F5CC73D7F880251A4407F21C43DA6197F87D25D7F880151346DB009B1A1B010B4403F588731B781A4613465B0013441B0103F5D073D7F8802513441A1D07F2B0
:404840001C431A6297F87D251346DB009B1A1B01E033D7F880251344DA1C07F21C435A6297F87D251346DB009B1A1B01E033D7F8802513441A1D07F21C439A6297F87D256F
:404880001346DB009B1A1B01E833D7F8802513441A1D07F21C43DA6297F87D251346DB009B1A1B0103F58473D7F8802513441A1D07F21C431A63D7F8803503F5F87207F267
:4048C0001C435A63D7F8803503F5FF7207F21C439A63D7F8803503F5FA7207F21C43DA63D7F8803503F5FE7207F21C431A6497F87D25D7F880151346DB009B1A1B010B4432
:4049000003F588731B781A4613465B0013441B0103F5D873D7F880251A4407F21C435A6497F87D25D7F880151346DB009B1A1B010B4403F588731B781A4613465B00134465
:404940001B0103F5D873D7F8802513441A1D07F21C439A6497F87D251346DB009B1A1B01E033D7F8802513445A1C07F21C43DA6497F87D251346DB009B1A1B01F033D7F838
:40498000802513441A1D07F21C431A65D7F8803503F1A10207F21C435A65D7F8803503F5287207F21C439A65D7F8803503F5297207F21C43DA65D7F8803503F52A7207F28F
:4049C0001C431A66D7F8803503F52B7207F21C435A66D7F8803503F2FF1207F21C439A66D7F8803503F1A70207F21C43DA66D7F8803503F5007207F21C431A67D7F88035C1
:404A000003F2262207F21C435A67D7F8803503F1A80207F21C439A67D7F8803503F5087207F21C43DA67D7F8803503F2012207F21C43C3F88020D7F8803503F2022207F231
:404A40001C43C3F88420D7F8803503F1AB0207F21C43C3F88820D7F8803593F8AB3012335B01D7F880251A4407F21C43C3F88C2097F87D251346DB009B1A1B0103F5887353
:404A8000D7F880251A4407F21C43C3F8902097F87D251346DB009B1A1B01E033D7F8802513449A1C07F21C43C3F8942097F87D251346DB009B1A1B0103F58873D7F8802533
:404AC00013445A1C07F21C43C3F8982097F87D251346DB009B1A1B0103F58873D7F8802513449A1C07F21C43C3F89C2097F87D25D7F880151346DB009B1A1B010B4403F5C4
:404B000088731B781A4613465B0013441B0103F5D873D7F8802513445A1C07F21C43C3F8A02097F87D25D7F880151346DB009B1A1B010B4403F588731B781A4613465B0086
:404B400013441B0103F5D873D7F8802513445A1D07F21C43C3F8A420D7F8803503F1A90207F21C43C3F8A82097F87C251346DB009B1A1B01B033D7F880251A4407F21C4326
:404B8000C3F8AC2097F87C251346DB009B1A1B01B833D7F8802513441A1D07F21C43C3F8B02097F87C251346DB009B1A1B01E033D7F880251A4407F21C43C3F8B42097F8D9
:404BC0007C251346DB009B1A1B0103F58473D7F8802513449A1D07F21C43C3F8B82097F87C251346DB009B1A1B0103F58473D7F880251344DA1D07F21C43C3F8BC2097F84F
:404C00007C25D7F880151346DB009B1A1B010B4403F588731B781A4613465B0013441B0103F5C873D7F8802513445A1D07F21C43C3F8C02097F87C25D7F880151346DB00DE
:404C40009B1A1B010B4403F588731B781A4613465B0013441B0103F5CC73D7F880251A4407F21C43C3F8C42097F87C25D7F880151346DB009B1A1B010B4403F588731B7899
:404C80001A4613465B0013441B0103F5D073D7F8802513441A1D07F21C43C3F8C82097F87C251346DB009B1A1B01E033D7F880251344DA1C07F21C43C3F8CC2097F87C25FD
:404CC0001346DB009B1A1B01E033D7F8802513441A1D07F21C43C3F8D02097F87C251346DB009B1A1B01E833D7F8802513441A1D07F21C43C3F8D42097F87C251346DB00DA
:404D00009B1A1B0103F58473D7F8802513441A1D07F21C43C3F8D82097F87C25D7F880151346DB009B1A1B010B4403F588731B781A4613465B0013441B0103F5D873D7F89F
:404D400080251A4407F21C43C3F8DC2097F87C25D7F880151346DB009B1A1B010B4403F588731B781A4613465B0013441B0103F5D873D7F8802513441A1D07F21C43C3F8D4
:404D8000E02097F87C251346DB009B1A1B01E033D7F8802513445A1C07F21C43C3F8E42097F87C251346DB009B1A1B01F033D7F8802513441A1D07F21C43C3F8E82097F84F
:404DC0007C251346DB009B1A1B0103F58873D7F880251A4407F21C43C3F8EC2097F87C251346DB009B1A1B01E033D7F8802513449A1C07F21C43C3F8F02097F87C251346B4
:404E0000DB009B1A1B0103F58873D7F8802513445A1C07F21C43C3F8F42097F87C251346DB009B1A1B0103F58873D7F8802513449A1C07F21C43C3F8F82097F87C25D7F898
:404E400080151346DB009B1A1B010B4403F588731B781A4613465B0013441B0103F5D873D7F8802513445A1C07F21C43C3F8FC2097F87C25D7F880151346DB009B1A1B01F0
:404E80000B4403F588731B781A4613465B0013441B0103F5D873D7F8802513445A1D07F21C43C3F80021D7F8803503F5C87207F21C43C3F80421D7F8803503F5E07207F228
:404EC0001C43C3F80821D7F8803503F2272207F21C43C3F80C21D7F8803503F50A7207F21C43C3F81021D7F8803503F22E2207F21C43C3F81421D7F8803503F50D7207F22C
:404F00001C43C3F81821D7F8803503F52C7207F21C43C3F81C21D7F8803503F2B22207F21C43C3F82021D7F8803503F52D7207F21C43C3F82421D7F8803503F1AC0207F281
:404F40001C43C3F82821D7F8803503F5387207F21C43C3F82C21D7F8803503F2E22207F21C43C3F83021D7F8803503F2E62207F21C43C3F83421D7F8803503F5307207F267
:404F80001C43C3F83821D7F8803503F2C12207F21C43C3F83C21D7F8803503F5347207F21C43C3F84021D7F8803503F5357207F21C43C3F84421D7F8803503F5367207F264
:404FC0001C43C3F8482107F57273F64A1846114653231A460FF068FF07F55D7301221A7007F55D7303225A7007F55D7303229A7007F55D730122DA7007F55D7301221A713A
:4050000007F55D7301225A7107F55D7303229A7107F55D730322DA7107F55D7303221A7207F55D7301225A7207F55D7302229A7207F55D730222DA7207F55D7301221A7392
:4050400007F55D7302225A7307F55D7301229A7307F55D730222DA7307F55D7302221A7407F55D7301225A7407F55D7301229A7407F55D730122DA7407F55D7306221A7542
:4050800007F55D7303225A7507F55D7301229A7507F55D730122DA7507F55D7301221A7607F55D7301225A7607F55D7301229A7607F55D730122DA7607F55D7301221A77F8
:4050C00007F55D7301225A7707F55D7301229A7707F55D730622DA7707F55D73012283F8202007F55D73052283F8212007F55D73012283F8222007F55D73062283F82320F4
:4051000007F55D73012283F8242007F55D73012283F8252007F55D73012283F8262007F55D73012283F8272007F55D73032283F8282007F55D73032283F8292007F55D737C
:40514000012283F82A2007F55D73032283F82B2007F55D73032283F82C2007F55D73012283F82D2007F55D73012283F82E2007F55D73012283F82F2007F55D73032283F844
:40518000302007F55D73032283F8312007F55D73032283F8322007F55D73012283F8332007F55D73022283F8342007F55D73022283F8352007F55D73012283F8362007F52C
:4051C0005D73012283F8372007F55D73012283F8382007F55D73012283F8392007F55D73062283F83A2007F55D73012283F83B2007F55D73012283F83C2007F55D73012222
:4052000083F83D2007F55D73012283F83E2007F55D73032283F83F2007F55D73032283F84020614B1A7807F55D7383F841205E4B5A7807F55D7383F8422007F55D7301223E
:4052400083F8432007F55D73062283F8442007F55D73062283F8452007F55D73012283F8462007F55D73012283F8472007F55D73012283F8482007F55D73022283F8492062
:4052800007F55D73012283F84A2007F55D73012283F84B2007F55D73022283F84C2007F55D73012283F84D2007F55D73012283F84E2007F55D73012283F84F2007F55D731A
:4052C000012283F8502007F55D73012283F8512007F55D73012283F8522007F5487300221A7097F87D350A33DAB207F548735A7097F87D350A33DAB207F548739A7097F8A1
:405300007D350A33DAB207F54873DA7097F87D350A33DAB207F548731A7197F87D350A33DAB207F548735A7197F87D25D7F880151346DB009B1A1B010B4403F588731B78AA
:405340001433DAB207F548739A7197F87D25D7F880151346DB009B1A1B010B4403F588731B781433DAB207F54873DA7197F87D25D7F880151346DB009B1A1B010B4403F573
:4053800088731B781433DAB207F548731A7297F87D350A33DAB207F548735A7297F87D3504E000BF1C7F0100009FFF1F0A33DAB207F548739A7297F87D350A33DAB207F5ED
:4053C0004873DA7297F87D350A33DAB207F548731A7307F548731E225A7307F548731E229A7307F548731E22DA7307F548731E221A7497F87D25D7F880151346DB009B1A49
:405400001B010B4403F588731B781433DAB207F548735A7497F87D25D7F880151346DB009B1A1B010B4403F588731B781433DAB207F548739A7497F87D350A33DAB207F516
:405440004873DA7497F87D350A33DAB207F548731A7507F5487300225A7507F5487346229A7507F548734622DA7507F5487346221A7607F5487346225A7607F548731E22FA
:405480009A7607F548730022DA7607F5487328221A7707F5487332225A7707F5487300229A7707F548733222DA7707F54873282283F8202007F54873282283F8212007F58A
:4054C0004873002283F82220D7F8803593F8AB303C33DAB207F5487383F8232097F87D350A33DAB207F5487383F8242097F87D350A33DAB207F5487383F8252097F87D3576
:405500000A33DAB207F5487383F8262097F87D350A33DAB207F5487383F8272097F87D25D7F880151346DB009B1A1B010B4403F588731B781433DAB207F5487383F82820EB
:4055400097F87D25D7F880151346DB009B1A1B010B4403F588731B781433DAB207F5487383F8292007F54873002283F82A2097F87C350A33DAB207F5487383F82B2097F8BB
:405580007C350A33DAB207F5487383F82C2097F87C350A33DAB207F5487383F82D2097F87C350A33DAB207F5487383F82E2097F87C350A33DAB207F5487383F82F2097F8C9
:4055C0007C25D7F880151346DB009B1A1B010B4403F588731B781433DAB207F5487383F8302097F87C25D7F880151346DB009B1A1B010B4403F588731B781433DAB207F53A
:40560000487383F8312097F87C25D7F880151346DB009B1A1B010B4403F588731B781433DAB207F5487383F8322097F87C350A33DAB207F5487383F8332097F87C350A3313
:40564000DAB207F5487383F8342097F87C350A33DAB207F5487383F8352097F87C350A33DAB207F5487383F8362097F87C25D7F880151346DB009B1A1B010B4403F588731C
:405680001B781433DAB207F5487383F8372097F87C25D7F880151346DB009B1A1B010B4403F588731B781433DAB207F5487383F8382097F87C350A33DAB207F5487383F8F5
:4056C000392097F87C350A33DAB207F5487383F83A2097F87C350A33DAB207F5487383F83B2097F87C350A33DAB207F5487383F83C2097F87C350A33DAB207F5487383F854
:405700003D2097F87C350A33DAB207F5487383F83E2097F87C25D7F880151346DB009B1A1B010B4403F588731B781433DAB207F5487383F83F2097F87C25D7F880151346B4
:40574000DB009B1A1B010B4403F588731B781433DAB207F5487383F8402007F54873142283F8412007F54873152283F8422007F54873322283F8432007F54873322283F840
:40578000442007F54873322283F8452007F54873322283F8462007F548736E2283F8472007F548736E2283F8482007F548736E2283F8492007F54873002283F84A2007F576
:4057C0004873642283F84B2007F54873642283F84C2007F54873642283F84D2007F54873502283F84E2007F54873502283F84F2007F548735A2283F8502007F548735A22C3
:4058000083F8512007F548735A2283F8522007F5EA73CD4A184611464FF4A6731A460FF043FB07F5AE7300221A6004337222002118460FF044FB07F5AE7064230A22C34924
:4058400010F006F907F5927300221A6004333422002118460FF033FBD7F8803593F8AC30042B10D107F59273B94A1C4615460FCD0FC40FCD0FC40FCD0FC495E8030020608A
:40588000043421700FE007F59273B24A1C4615460FCD0FC40FCD0FC40FCD0FC495E8030020600434217007F1F403AB4A1A6007F1F403AA4A5A6007F1F403A94A9A6007F1D1
:4058C000F403A84ADA6007F1F403A74A1A6107F1F403A64A5A6107F1F40307F5AE729A6107F1F403A24ADA6107F1F403A14A1A6207F1F403A04A5A6207F1F40307F592729A
:405900009A6207F1F4039D4ADA6207F1D4039C4A1C46154628686968AA68EB680FC428696969AA69EB690FC407F1C803954A1068516803C3127A1A7007F1B403924A1C4615
:40594000154628686968AA68EB680FC42B8A2380232387F87B35002387F88635002387F8873521E097F8863507F1C802D35C1A4697F8873501339A420BD197F8873507F195
:4059800060020121D15497F88635013387F8863505E097F8873507F160020021D15497F88735013387F8873597F88735522BD9D9002387F88635002387F8873521E097F837
:4059C000863507F1B402D35C1A4697F8873501339A420BD197F8873507F10C020121D15497F88635013387F8863505E097F8873507F10C020021D15497F88735013387F8AE
:405A0000873597F88735522BD9D9BB1D1B88002B17D107F5487407F55D7207F5727107F21C4007F1F403039307F16003029307F5EA73019307F1D40300932346FCF7DAFCF5
:405A4000DAE2BB1D1B88DBB2013B87F87A3597F87A3507F57272D35C092B23D801A252F823F000BF8D5A00008D5A00008D5A0000955A0000955A00009D5A00009D5A00003C
:405A80009D5A0000A55A00008D5A0000012387F8853507E0022387F8853503E0042387F8853500BF97F87A3507F10C02D35C002B40F03F8297F87A3507F57272D35C092B55
:405AC00000F2368201A252F823F000BFF55A0000F35B0000F55A0000455C0000DB5C00006F5D0000035E0000975E0000315F0000415B0000002387F8873517E097F87A25A8
:405B000007F21C4353F8223097F8872597F8851501FB02F2134497F8872503321B498A5C1A7097F88735013387F8873597F87A3507F55D72D35C97F887259A42DED3F8E1EE
:405B4000002387F887353BE004880100587B0100CC7B0100047C01003C7C0100C87C0100087D0100347D01004C7D0100747D0100D07D01000C7E01006C7E0100E87E010065
:405B800050890100708901007C890100A494FF1F97F87A2507F21C4353F8223097F8872597F8851501FB02F2134497F887250332DE498A5C1A7097F88735013387F8873526
:405BC00097F87A3507F55D72D35C97F887259A42DED397F87A2507F21C4353F8223097F8872597F8851501FB02F2134400221A709FE1002387F887351AE097F87A2507F22C
:405C00001C4353F8223097F8872597F8851501FB02F2134497F887250332C4490A4492F90020D2B21A7097F88735013387F8873597F87A3507F55D72D35C97F887259A4230
:405C4000DBD376E1002387F887353CE097F8873597F8852502FB03F30333B44A1344B3F90030A7F87835002387F8863520E097F87A2507F21C4353F8222097F8873597F831
:405C8000851501FB03F3184697F8851597F88635CB1A0344013B134497F8862507F5AF610A4412781A7097F88635013387F8863597F8862597F885359A42D8D397F8873513
:405CC000013387F8873597F87A3507F55D72D35C97F887259A42B9D32BE1002387F887353BE097F8873597F8852502FB03F303338E4A13441B88A7F87635002387F88635AF
:405D000020E097F87A2507F21C4353F8222097F8873597F8851501FB03F3184697F8851597F88635CB1A0344013B134497F8862507F276510A4412781A7097F88635013380
:405D400087F8863597F8862597F885359A42D8D397F88735013387F8873597F87A3507F55D72D35C97F887259A42BAD3E1E0002387F887353BE097F8873597F8852502FB8E
:405D800003F30333694A13441B68C7F87035002387F8863520E097F87A2507F21C4353F8222097F8873597F8851501FB03F3184697F8851597F88635CB1A0344013B134460
:405DC00097F8862507F5AE610A4412781A7097F88635013387F8863597F8862597F885359A42D8D397F88735013387F8873597F87A3507F55D72D35C97F887259A42BAD3A4
:405E000097E0002387F887353BE097F8873597F8852502FB03F30333444A13441B68C7F86C35002387F8863520E097F87A2507F21C4353F8222097F8873597F8851501FB1D
:405E400003F3184697F8851597F88635CB1A0344013B134497F8862507F26C510A4412781A7097F88635013387F8863597F8862597F885359A42D8D397F88735013387F88A
:405E8000873597F87A3507F55D72D35C97F887259A42BAD34DE0002387F887353BE097F8873597F8852502FB03F303331F4A13441B68C7F86835002387F8863520E097F86C
:405EC0007A2507F21C4353F8222097F8873597F8851501FB03F3184697F8851597F88635CB1A0344013B134497F8862507F5AD610A4412781A7097F88635013387F88635CA
:405F000097F8862597F885359A42D8D397F88735013387F8873597F87A3507F55D72D35C97F887259A42BAD303E000BFA494FF1F00BF97F87B359BB2BA1D12889A4211D050
:405F4000D7F8803593F8AB305B0103F51273D7F88025D018D7F8803503F5F873102219460EF0A2FF97F87A3507F57272D35C002B42D1002387F87F35FF2387F87E3597F827
:405F80007F3507F57272D35C002B04D197F87E35013387F87E3597F87F35013387F87F3597F87F2597F87A359A42E8D997F87E3507F1D402D35C052B1BD097F87E3507F12A
:405FC000D402D35C062B14D097F87E3507F1D402D35C082B0DD097F87E3507F1D402D35C092B06D097F87E3507F1D402D35C0A2B02D1044B01221A7000BF07F5B167BD46D6
:40600000B0BD00BF8982FF1FB0B5ADF5D56D00AF0246BB1D1A8007F58A7300221A60043340F27552002118460EF049FF0723A7F89A360023A7F8A6360223A7F89836B7F857
:406040009A365A1CB7F8A636134401339AB2D24B1B789BB213449BB21A46920013441A4691001A460B4613445B009BB2FB33A7F896360023A7F8943607F1F803C74A1C4662
:4060800015460FCD0FC495E8070003C4228007F1EC0300221A60043300221A60C3F8032007F1D803BE4A1C4615460FCD0FC42B68236007F1C80300221A60043300221A6026
:4060C0005A609A6007F19C0300221A6004332622002118460EF0F3FE07F1800300221A60043300221A605A609A60DA601A619A8207F1C80318460FF0F0FC034687F89336C0
:4061000007F1F80318460FF0E8FC034687F8923607F1EC0318460FF0E0FC034687F8913607F1D80318460FF0D8FC034687F8903607F19C0318460FF0D0FC034687F88F360D
:4061400007F1800318460FF0C8FC034687F89D3607F1080300221A6004337222002118460EF0ADFE07F1080064230A228D490FF06FFC07F1080318460FF0AFFC034687F890
:406180008E36854B1B785B08DBB2A7F8A636824B1B781A46B7F8A6365B00D31A002B04DDB7F8A6360133A7F8A636B7F89A365A1CB7F8A636134401339AB2774B1B789BB27B
:4061C00013449BB21A46920013441A4691001A460B4613445B009BB2C933A7F89636B7F89A26B7F8A63613449BB20333A7F8983607F58A73A2221A70B7F89A36DAB2B7F868
:40620000A636DBB21344DAB2634B1B781344DBB20333DAB207F58A735A70BB1D1B88002B40F0D0840023A7F8943607F58A7302229A7007F58A730122DA70574B1A7807F5F5
:406240008A731A7197F89236A7F8A43615E097F892365A1DB7F8A436D31A97F89216B7F8A4268A1A07F1F801895C07F58A72D154B7F8A436013BA7F8A436B7F8A436002B54
:40628000E5D1B7F894363233A7F894360023A7F8A4360023A7F8A036B2E0B7F8A02607F1EC03414918460FF0D3FB0423A7F89E3607F1EC0318460FF010FC034687F8913691
:4062C000B7F894369A1CB7F8A036322101FB03F3134407F58A720221D154B7F89436DA1CB7F8A036322101FB03F3134407F58A720321D154B7F8A0361A4652001344A7F810
:40630000A23639E0B7F8A436284AD35C9BB2B7F8A2269A4217D1B7F89E26B7F894361A44B7F8A036322101FB03F31344B7F8A4261E49895C07F58A72D154B7F8A4360133B0
:40634000A7F8A4360EE0B7F89E26B7F894361A44B7F8A036322101FB03F3134407F58A72FF21D154B7F89E360133A7F89E36B7F8A2360133A7F8A236B7F8A216B7F8A026D6
:4063800013465B00134402339942BBDD97F89136A7F8A2362BE000BFA094FF1FF8890100148A0100587B0100908901002C9FFF1FB7F89436DA1DB7F8A036322101FB03F30F
:4063C0001A4497F891361A44B7F8A236D31A97F89116B7F8A2268A1A07F1EC01895C07F58A72D154B7F8A236013BA7F8A236B7F8A236002BDCD1B7F8A0360133A7F8A03618
:40640000B7F8A026B7F89A369A42FFF446AFB7F89A361A46920013441A4691001A460B4613445B009AB2B7F894361344A7F894360023A7F8A0361FE1B7F894369A1CB7F88D
:40644000A036322101FB03F3134407F58A720221D154B7F89436DA1CB7F8A036322101FB03F3134407F58A720321D154B7F894361A1DB7F8A036322101FB03F31A44B7F812
:40648000A0365B00B249CB5C1846B24903465B0003440B44197807F58A739954B7F894365A1DB7F8A036322101FB03F31A44B7F8A0365B00A649CB5C1846A64903465B0080
:4064C00003440B440133197807F58A739954B7F894369A1DB7F8A036322101FB03F31A44B7F8A0365B009A49CB5C1846994903465B0003440B440233197807F58A739954F3
:40650000954B1B781A46B7F8A03601335B009A4228DA97F89036A7F8A2361EE0B7F89436DA1DB7F8A036322101FB03F31A4497F890361A44B7F8A236D31A97F89016B7F829
:40654000A2268A1A07F1D801895C07F58A72D154B7F8A236013BA7F8A236B7F8A236002BDCD184E0B7F89436DA1CB7F8A036322101FB03F3134407F58A720621D154B7F85C
:406580009436DA1DB7F8A036322101FB03F31A44B7F8A0365B0001336D49CB5C18466D4903465B0003440B44197807F58A739954B7F8943603F10802B7F8A036322101FBF1
:4065C00003F31A44B7F8A0365B0001336049CB5C1846604903465B0003440B440133197807F58A739954B7F8943603F10902B7F8A036322101FB03F31A44B7F8A0365B00F7
:4066000001335349CB5C1846524903465B0003440B440233197807F58A73995497F89036A7F8A2361FE0B7F8943603F10A02B7F8A036322101FB03F31A4497F890361A4465
:40664000B7F8A236D31A97F89016B7F8A2268A1A07F1D801895C07F58A72D154B7F8A236013BA7F8A236B7F8A236002BDBD1B7F8A0360133A7F8A036B7F8A026B7F8A636BD
:406680009A42FFF4D9AEB7F8A6361A46920013441A4691001A460B4613445B009AB2B7F894361344A7F89436B7F898365A1E07F1C8032A4918460FF0CBF907F1C80318466A
:4066C0000FF00BFA034687F89336B7F89436023307F58A720221D154B7F89436033307F58A720121D154B7F8943604331C4A92F8A01007F58A72D15497F89336A7F8A436EB
:4067000018E0B7F894365A1D97F893361A44B7F8A436D31A97F89316B7F8A4268A1A07F1C801895C07F58A72D154B7F8A436013BA7F8A436B7F8A436002BE2D1B7F894360F
:406740003233A7F894360023A7F8A43638E100BF2C9FFF1FA49FFF1FA094FF1F9C89010008A0FF1FB7F89826B7F8A436D118B7F8A436D54AD35C07F19C000A46D3490FF09A
:4067800067F907F19C0318460FF0A7F9034687F88F36B7F8A4361A46920013441A4691001A460B4613445B009AB2B7F8943613449BB202339BB21A4607F58A7302219954DE
:4067C000B7F8A4361A46920013441A4691001A460B4613445B009AB2B7F8943613449BB203339BB21A4607F58A7305219954B7F8A4361A46920013441A4691001A460B46A7
:4068000013445B009AB2B7F8943613449BB204339BB21846B7F8A436AB4AD35C1946AC4A0B469B000B44134403F202231A7807F58A731A54B7F8A4361A46920013441A4682
:4068400091001A460B4613445B009AB2B7F8943613449BB205339BB21846B7F8A4369A4AD35C19469A4A0B469B000B44134403F203231A7807F58A731A54B7F8A4361A466A
:40688000920013441A4691001A460B4613445B009AB2B7F8943613449BB206339BB21846B7F8A436884AD35C1946894A0B469B000B44134403F501731A7807F58A731A549B
:4068C000B7F8A4361A46920013441A4691001A460B4613445B009AB2B7F8943613449BB207339BB21846B7F8A436774AD35C1946774A0B469B000B44134403F205231A784A
:4069000007F58A731A54B7F8A4361A46920013441A4691001A460B4613445B009AB2B7F8943613449BB208339BB21846B7F8A436654AD35C1946664A0B469B000B44134473
:4069400003F206231A7807F58A731A5497F88F36A7F8A2362BE0B7F8A4361A46920013441A4691001A460B4613445B009AB2B7F8943613449AB297F88F369BB213449AB258
:40698000B7F8A236D31A9BB209339BB2194697F88F26B7F8A236D31A07F19C02D25C07F58A735A54B7F8A236013BA7F8A236B7F8A236002BCFD1B7F8A4360133A7F8A43649
:4069C000444B1B789BB2B7F8A4269A42FFF4CAAE404B1B789BB21A46920013441A4691001A460B4613445B009AB2B7F894361344A7F89436B7F89836364A12781A4407F1FE
:406A00008003354918460FF023F8B7F89436023307F58A720021D154B7F89436033307F58A720121D154B7F894360433284A92F8011207F58A72D154254B93F80132012BCD
:406A400017D0022B28D0002B00D038E007F1800318460FF042F803461A4607F1800313441E4A1068186092889A801A2387F89D3625E007F1800318460FF02FF803461A46A2
:406A800007F180031344164A1068186012791A71192387F89D3612E007F1800318460FF01CF803461A4607F1800313440D4A1068186092889A801A2387F89D3600BF97F85F
:406AC0009D36A7F8A43628E02C9FFF1FAC89010008A0FF1FA094FF1FC8890100E0890100E8890100F0890100B7F894365A1D97F89D361A44B7F8A436D31A97F89D16B7F84C
:406B0000A4268A1A07F18001895C07F58A72D154B7F8A436013BA7F8A436B7F8A436002BE2D1B7F894365A1D97F89D36134407F58A720121D154B7F894363233A7F8943698
:406B400097F88E36A7F8A4361AE0B7F8943602339BB21A4697F88E361A44B7F8A436D31A97F88E16B7F8A4268A1A07F10801895C07F58A72D154B7F8A436013BA7F8A4363C
:406B8000B7F8A436002BE0D1B7F896365C1EB7F89636DBB2013BDAB207F58A731146184603F030FF03461A4607F58A731A55B7F8962607F58A731146184603F08FFE08F039
:406BC0006BFA09E1BB1D1A88B7F89836013B9A42C0F20181BB1D1A88B7F89836814909780B449A4205D1804BDA78804B83F80122F2E0BB1D1A88B7F89836013B9A4205D183
:406C0000794BDA78794B83F8A020E5E0BB1D1A88B7F89836D31A764AD35C1946724BD878724A0B469B000B44134403F2022302461A70BB1D1A88B7F89836D31A6C4AD35C38
:406C40001946694B1879694A0B469B000B44134403F2032302461A70BB1D1A88B7F89836D31A634AD35C19465F4B58795F4A0B469B000B44134403F5017302461A70BB1D53
:406C80001A88B7F89836D31A594AD35C1946564B9879564A0B469B000B44134403F2052302461A70BB1D1A88B7F89836D31A504AD35C19464C4BD8794C4A0B469B000B44FF
:406CC000134403F2062302461A704A4B01221A600023A7F8A43671E0B7F8A436444AD35C1C46B7F8A436424AD35C19463F4A0B469B000B44134403F202231B781A46134662
:406D00005B0013445B005A1CB7F8A4363849CB5C1846364903469B0003440B4403F203231B7819460B465B000B445B001A44B7F8A4362F49CB5C18462C4903469B00034461
:406D40000B4403F501731B7819460B465B000B445B001A44B7F8A4362549CB5C1846234903469B0003440B4403F205231B781B011A44B7F8A4361E49CB5C18461B49034604
:406D80009B0003440B4403F206231B785B0013440133194A42F82430B7F8A436144AD35C1A46154B53F82220124B1B681344114A1360B7F8A4360133A7F8A436094B1B7895
:406DC0009BB2B7F8A4269A4286D30A4B1B680133084A136000E000BF00BF07F5D567BD46B0BD00BFA094FF1FA494FF1FDCA4FF1F2C9FFF1F7895FF1FB49FFF1FB0B582B0A0
:406E000000AF0023BB712FE00023FB7122E0BA79F879B979FC79194D0B469B000B44234455F823301C46164913465B0013449B000344663341F82340BA79FB791149342089
:406E400000FB02F20A441344183300221A70FB790133FB71FB79022BD9D9BB790A4A0121D154BB790133BB71BB79012BCCD9012003F0E8FD00BF0837BD46B0BD049FFF1F90
:406E8000DCA4FF1F3C9FFF1F04A0FF1F2DE9F04FB1B00AAF7861C74BC7F88C30C54B93F8A030FA2B01F0C2857B6900221A7078690EF013FE03461A467B691344BE4A1188D7
:406EC000927819809A7078690EF007FE03461A467B691344B94A1D4614460FCC28606960AA60EB602388A2782B821346AB7478690EF0F3FD03461A467B691344B04A1446EB
:406F00009E4604F1200C754626460FCE28606960AA60EB6010340EF1100E6445F3D17246234603CB1060516078690EF0D6FD03461A467B691344A34A1068186092889A801D
:406F400078690EF0CAFD03461A467B6913449E4A1C46134607CB20606160A2601B88A381D7F88C3093F8A0301A4607F11C03974918460EF06DFD07F11C03194678690EF0B0
:406F80008BFDD7F88C3093F8AC30042B00F2928001A252F823F000BFAD6F0000DB6F00000B7000004D7000008D70000078690EF094FD03461A467B691344854A1C461546EA
:406FC0000FCD20606160A260E36028682061AB88AA79A3821346A3756DE078690EF07DFD03461A467B6913447A4A1D4614460FCC28606960AA60EB6003CC286169612388D9
:40700000A2782B831346AB7655E078690EF065FD03461A467B6913446F4A14469E4604F1200C754626460FCE28606960AA60EB6010340EF1100E6445F3D17346224610688B
:4070400018609188927999809A7134E078690EF044FD03461A467B691344604A14469E4604F1200C754626460FCE28606960AA60EB6010340EF1100E6445F3D17246234696
:4070800003CB106051601B88138114E078690EF024FD03461A467B691344514A1D4614460FCC28606960AA60EB6007CC28616961AA6100E000BFD7F88C3093F8A730002B11
:4070C00002D0012B15D026E078690EF006FD03461A467B691344434A1D4614460FCC28606960AA60EB602388A2782B821346AB7411E078690EF0F1FC03461A467B6913448B
:40710000394A1D4614460FCC28606960AA60EB6023882B8200BFD7F88C3093F8AB30012B02D0022B11D01FE078690EF0D6FC03461A467B6913442D4A1C46134607CB206062
:407140006160A2601B88A38122E078690EF0C5FC03461A467B691344254A1C46134607CB20606160A26013E078690EF0B6FC03461A467B6913441F4A1D4614460FCC2860CF
:407180006960AA60EB602068286123792B7500BF78690EF0A2FC03461A467B691344064A1188927819809A70002387F8933001F070B800BF08A0FF1F288A01002C8A010041
:4071C000408A0100688A0100708A0100808A01008C8A0100A48A0100C08A0100E88A0100148B0100308B0100448B0100588B0100688B0100748B010097F8933087F88B3037
:4072000097F88B201346DB009B1A1B01B033D7F88C201344C7F88430D7F8843093F8603087F8833097F88B305A1C07F11C03AE4918460EF00DFC07F11C03194678690EF08F
